{
  "_format": "hh-sol-artifact-1",
  "contractName": "Voting",
  "sourceName": "contracts/Voting.sol",
  "abi": [
    {
      "inputs": [
        {
          "internalType": "uint256",
          "name": "_durationInMinutes",
          "type": "uint256"
        },
        {
          "internalType": "address",
          "name": "_admin",
          "type": "address"
        }
      ],
      "stateMutability": "nonpayable",
      "type": "constructor"
    },
    {
      "anonymous": false,
      "inputs": [
        {
          "indexed": false,
          "internalType": "string",
          "name": "winnerName",
          "type": "string"
        },
        {
          "components": [
            {
              "internalType": "string",
              "name": "name",
              "type": "string"
            },
            {
              "internalType": "uint256",
              "name": "age",
              "type": "uint256"
            },
            {
              "internalType": "string",
              "name": "candidateAddress",
              "type": "string"
            },
            {
              "internalType": "string",
              "name": "party",
              "type": "string"
            },
            {
              "internalType": "uint256",
              "name": "voteCount",
              "type": "uint256"
            }
          ],
          "indexed": false,
          "internalType": "struct Voting.Candidate[]",
          "name": "candidates",
          "type": "tuple[]"
        }
      ],
      "name": "WinnerDeclared",
      "type": "event"
    },
    {
      "inputs": [
        {
          "internalType": "string",
          "name": "_name",
          "type": "string"
        },
        {
          "internalType": "uint256",
          "name": "_age",
          "type": "uint256"
        },
        {
          "internalType": "string",
          "name": "_party",
          "type": "string"
        },
        {
          "internalType": "string",
          "name": "_candidateAddress",
          "type": "string"
        }
      ],
      "name": "addCandidate",
      "outputs": [],
      "stateMutability": "nonpayable",
      "type": "function"
    },
    {
      "inputs": [],
      "name": "admin",
      "outputs": [
        {
          "internalType": "address",
          "name": "",
          "type": "address"
        }
      ],
      "stateMutability": "view",
      "type": "function"
    },
    {
      "inputs": [
        {
          "internalType": "uint256",
          "name": "",
          "type": "uint256"
        }
      ],
      "name": "candidates",
      "outputs": [
        {
          "internalType": "string",
          "name": "name",
          "type": "string"
        },
        {
          "internalType": "uint256",
          "name": "age",
          "type": "uint256"
        },
        {
          "internalType": "string",
          "name": "candidateAddress",
          "type": "string"
        },
        {
          "internalType": "string",
          "name": "party",
          "type": "string"
        },
        {
          "internalType": "uint256",
          "name": "voteCount",
          "type": "uint256"
        }
      ],
      "stateMutability": "view",
      "type": "function"
    },
    {
      "inputs": [],
      "name": "declareResult",
      "outputs": [],
      "stateMutability": "nonpayable",
      "type": "function"
    },
    {
      "inputs": [],
      "name": "endVoting",
      "outputs": [],
      "stateMutability": "nonpayable",
      "type": "function"
    },
    {
      "inputs": [],
      "name": "getAllCandidates",
      "outputs": [
        {
          "components": [
            {
              "internalType": "string",
              "name": "name",
              "type": "string"
            },
            {
              "internalType": "uint256",
              "name": "age",
              "type": "uint256"
            },
            {
              "internalType": "string",
              "name": "candidateAddress",
              "type": "string"
            },
            {
              "internalType": "string",
              "name": "party",
              "type": "string"
            },
            {
              "internalType": "uint256",
              "name": "voteCount",
              "type": "uint256"
            }
          ],
          "internalType": "struct Voting.Candidate[]",
          "name": "",
          "type": "tuple[]"
        }
      ],
      "stateMutability": "view",
      "type": "function"
    },
    {
      "inputs": [],
      "name": "getAllVoters",
      "outputs": [
        {
          "components": [
            {
              "internalType": "string",
              "name": "name",
              "type": "string"
            },
            {
              "internalType": "uint256",
              "name": "age",
              "type": "uint256"
            },
            {
              "internalType": "bool",
              "name": "hasVoted",
              "type": "bool"
            }
          ],
          "internalType": "struct Voting.Voter[]",
          "name": "",
          "type": "tuple[]"
        }
      ],
      "stateMutability": "view",
      "type": "function"
    },
    {
      "inputs": [],
      "name": "getCandidateCount",
      "outputs": [
        {
          "internalType": "uint256",
          "name": "",
          "type": "uint256"
        }
      ],
      "stateMutability": "view",
      "type": "function"
    },
    {
      "inputs": [],
      "name": "getRemainingTime",
      "outputs": [
        {
          "internalType": "uint256",
          "name": "",
          "type": "uint256"
        }
      ],
      "stateMutability": "view",
      "type": "function"
    },
    {
      "inputs": [],
      "name": "getVotingStatus",
      "outputs": [
        {
          "internalType": "bool",
          "name": "",
          "type": "bool"
        }
      ],
      "stateMutability": "view",
      "type": "function"
    },
    {
      "inputs": [],
      "name": "getWinner",
      "outputs": [
        {
          "internalType": "string",
          "name": "",
          "type": "string"
        },
        {
          "components": [
            {
              "internalType": "string",
              "name": "name",
              "type": "string"
            },
            {
              "internalType": "uint256",
              "name": "age",
              "type": "uint256"
            },
            {
              "internalType": "string",
              "name": "candidateAddress",
              "type": "string"
            },
            {
              "internalType": "string",
              "name": "party",
              "type": "string"
            },
            {
              "internalType": "uint256",
              "name": "voteCount",
              "type": "uint256"
            }
          ],
          "internalType": "struct Voting.Candidate[]",
          "name": "",
          "type": "tuple[]"
        }
      ],
      "stateMutability": "view",
      "type": "function"
    },
    {
      "inputs": [
        {
          "internalType": "address",
          "name": "",
          "type": "address"
        }
      ],
      "name": "hasRegistered",
      "outputs": [
        {
          "internalType": "bool",
          "name": "",
          "type": "bool"
        }
      ],
      "stateMutability": "view",
      "type": "function"
    },
    {
      "inputs": [],
      "name": "isAdmin",
      "outputs": [
        {
          "internalType": "bool",
          "name": "",
          "type": "bool"
        }
      ],
      "stateMutability": "view",
      "type": "function"
    },
    {
      "inputs": [],
      "name": "isRegisteredVoter",
      "outputs": [
        {
          "internalType": "bool",
          "name": "",
          "type": "bool"
        }
      ],
      "stateMutability": "view",
      "type": "function"
    },
    {
      "inputs": [],
      "name": "isVotingOpen",
      "outputs": [
        {
          "internalType": "bool",
          "name": "",
          "type": "bool"
        }
      ],
      "stateMutability": "view",
      "type": "function"
    },
    {
      "inputs": [
        {
          "internalType": "string",
          "name": "_name",
          "type": "string"
        },
        {
          "internalType": "uint256",
          "name": "_age",
          "type": "uint256"
        }
      ],
      "name": "registerVoter",
      "outputs": [],
      "stateMutability": "nonpayable",
      "type": "function"
    },
    {
      "inputs": [],
      "name": "showTotalVoters",
      "outputs": [
        {
          "internalType": "uint256",
          "name": "",
          "type": "uint256"
        }
      ],
      "stateMutability": "view",
      "type": "function"
    },
    {
      "inputs": [
        {
          "internalType": "uint256",
          "name": "_durationInMinutes",
          "type": "uint256"
        }
      ],
      "name": "startVoting",
      "outputs": [],
      "stateMutability": "nonpayable",
      "type": "function"
    },
    {
      "inputs": [],
      "name": "totalVoters",
      "outputs": [
        {
          "internalType": "uint256",
          "name": "",
          "type": "uint256"
        }
      ],
      "stateMutability": "view",
      "type": "function"
    },
    {
      "inputs": [
        {
          "internalType": "uint256",
          "name": "_candidateIndex",
          "type": "uint256"
        }
      ],
      "name": "vote",
      "outputs": [],
      "stateMutability": "nonpayable",
      "type": "function"
    },
    {
      "inputs": [
        {
          "internalType": "address",
          "name": "",
          "type": "address"
        }
      ],
      "name": "voters",
      "outputs": [
        {
          "internalType": "string",
          "name": "name",
          "type": "string"
        },
        {
          "internalType": "uint256",
          "name": "age",
          "type": "uint256"
        },
        {
          "internalType": "bool",
          "name": "hasVoted",
          "type": "bool"
        }
      ],
      "stateMutability": "view",
      "type": "function"
    },
    {
      "inputs": [
        {
          "internalType": "uint256",
          "name": "",
          "type": "uint256"
        }
      ],
      "name": "votersByIndex",
      "outputs": [
        {
          "internalType": "address",
          "name": "",
          "type": "address"
        }
      ],
      "stateMutability": "view",
      "type": "function"
    },
    {
      "inputs": [],
      "name": "votingEnd",
      "outputs": [
        {
          "internalType": "uint256",
          "name": "",
          "type": "uint256"
        }
      ],
      "stateMutability": "view",
      "type": "function"
    },
    {
      "inputs": [],
      "name": "votingOpen",
      "outputs": [
        {
          "internalType": "bool",
          "name": "",
          "type": "bool"
        }
      ],
      "stateMutability": "view",
      "type": "function"
    },
    {
      "inputs": [],
      "name": "votingStart",
      "outputs": [
        {
          "internalType": "uint256",
          "name": "",
          "type": "uint256"
        }
      ],
      "stateMutability": "view",
      "type": "function"
    },
    {
      "inputs": [],
      "name": "winnerName",
      "outputs": [
        {
          "internalType": "string",
          "name": "",
          "type": "string"
        }
      ],
      "stateMutability": "view",
      "type": "function"
    }
  ],
  "bytecode": "0x60806040523480156200001157600080fd5b50604051620030c9380380620030c983398181016040528101906200003791906200011d565b600082116200007d576040517f08c379a00000000000000000000000000000000000000000000000000000000081526004016200007490620001c6565b60405180910390fd5b806000806101000a81548173ffffffffffffffffffffffffffffffffffffffff021916908373ffffffffffffffffffffffffffffffffffffffff1602179055506000600581905550600060068190555060008060146101000a81548160ff02191690831515021790555050506200026b565b600081519050620001008162000237565b92915050565b600081519050620001178162000251565b92915050565b600080604083850312156200013157600080fd5b6000620001418582860162000106565b92505060206200015485828601620000ef565b9150509250929050565b60006200016d602983620001e8565b91507f566f74696e67206475726174696f6e206d75737420626520677265617465722060008301527f7468616e207a65726f00000000000000000000000000000000000000000000006020830152604082019050919050565b60006020820190508181036000830152620001e1816200015e565b9050919050565b600082825260208201905092915050565b600062000206826200020d565b9050919050565b600073ffffffffffffffffffffffffffffffffffffffff82169050919050565b6000819050919050565b6200024281620001f9565b81146200024e57600080fd5b50565b6200025c816200022d565b81146200026857600080fd5b50565b612e4e806200027b6000396000f3fe608060405234801561001057600080fd5b506004361061018e5760003560e01c80638e7ea5b2116100de578063c3403ddf11610097578063efb98bcf11610071578063efb98bcf14610434578063f2dc48f014610452578063f851a44014610482578063fa7f1bae146104a05761018e565b8063c3403ddf146103f0578063e2ba53f0146103fa578063e661ea5f146104185761018e565b80638e7ea5b214610315578063a0d0352614610334578063a3ec138d14610364578063a95824b414610396578063a9be654a146103b4578063b6db75a0146103d25761018e565b80633477ee2e1161014b578063581c281c11610125578063581c281c146102b15780635f5300ff146102cf5780638574c296146102ed57806385a38635146102f75761018e565b80633477ee2e1461024357806335bbe70e146102775780633d2f5bda146102955761018e565b80630121b93f14610193578063101158af146101af5780631684eb41146101cd5780631c1d3baf146101eb5780632e6997fe1461020757806330a5634714610225575b600080fd5b6101ad60048036038101906101a89190611e80565b6104be565b005b6101b7610726565b6040516101c491906129d5565b60405180910390f35b6101d561072c565b6040516101e29190612724565b60405180910390f35b61020560048036038101906102009190611dd5565b610780565b005b61020f6108d4565b60405161021c91906126e0565b60405180910390f35b61022d610afd565b60405161023a91906129d5565b60405180910390f35b61025d60048036038101906102589190611e80565b610b0a565b60405161026e9594939291906127d6565b60405180910390f35b61027f610ce8565b60405161028c9190612702565b60405180910390f35b6102af60048036038101906102aa9190611e80565b610f41565b005b6102b9611131565b6040516102c69190612724565b60405180910390f35b6102d7611140565b6040516102e491906129d5565b60405180910390f35b6102f5611146565b005b6102ff611284565b60405161030c91906129d5565b60405180910390f35b61031d61128a565b60405161032b929190612761565b60405180910390f35b61034e60048036038101906103499190611d58565b61165d565b60405161035b9190612724565b60405180910390f35b61037e60048036038101906103799190611d58565b61167d565b60405161038d93929190612798565b60405180910390f35b61039e61173c565b6040516103ab9190612724565b60405180910390f35b6103bc61174f565b6040516103c991906129d5565b60405180910390f35b6103da611759565b6040516103e79190612724565b60405180910390f35b6103f86117b0565b005b61040261188f565b60405161040f919061273f565b60405180910390f35b610432600480360381019061042d9190611d81565b61191d565b005b61043c611b28565b60405161044991906129d5565b60405180910390f35b61046c60048036038101906104679190611e80565b611b63565b60405161047991906126c5565b60405180910390f35b61048a611ba2565b60405161049791906126c5565b60405180910390f35b6104a8611bc6565b6040516104b59190612724565b60405180910390f35b600260003373ffffffffffffffffffffffffffffffffffffffff1673ffffffffffffffffffffffffffffffffffffffff16815260200190815260200160002060009054906101000a900460ff1661054a576040517f08c379a0000000000000000000000000000000000000000000000000000000008152600401610541906128b5565b60405180910390fd5b610552611bc6565b610591576040517f08c379a000000000000000000000000000000000000000000000000000000000815260040161058890612975565b60405180910390fd5b600160003373ffffffffffffffffffffffffffffffffffffffff1673ffffffffffffffffffffffffffffffffffffffff16815260200190815260200160002060020160009054906101000a900460ff1615610621576040517f08c379a0000000000000000000000000000000000000000000000000000000008152600401610618906129b5565b60405180910390fd5b6003805490508110610668576040517f08c379a000000000000000000000000000000000000000000000000000000000815260040161065f90612935565b60405180910390fd5b600381815481106106a2577f4e487b7100000000000000000000000000000000000000000000000000000000600052603260045260246000fd5b906000526020600020906005020160040160008154809291906106c490612cf6565b919050555060018060003373ffffffffffffffffffffffffffffffffffffffff1673ffffffffffffffffffffffffffffffffffffffff16815260200190815260200160002060020160006101000a81548160ff02191690831515021790555050565b60055481565b6000600260003373ffffffffffffffffffffffffffffffffffffffff1673ffffffffffffffffffffffffffffffffffffffff16815260200190815260200160002060009054906101000a900460ff16905090565b60008054906101000a900473ffffffffffffffffffffffffffffffffffffffff1673ffffffffffffffffffffffffffffffffffffffff163373ffffffffffffffffffffffffffffffffffffffff161461080e576040517f08c379a000000000000000000000000000000000000000000000000000000000815260040161080590612875565b60405180910390fd5b60036040518060a0016040528086815260200185815260200183815260200184815260200160008152509080600181540180825580915050600190039060005260206000209060050201600090919091909150600082015181600001908051906020019061087d929190611c00565b506020820151816001015560408201518160020190805190602001906108a4929190611c00565b5060608201518160030190805190602001906108c1929190611c00565b5060808201518160040155505050505050565b60606003805480602002602001604051908101604052809291908181526020016000905b82821015610af457838290600052602060002090600502016040518060a001604052908160008201805461092b90612caa565b80601f016020809104026020016040519081016040528092919081815260200182805461095790612caa565b80156109a45780601f10610979576101008083540402835291602001916109a4565b820191906000526020600020905b81548152906001019060200180831161098757829003601f168201915b50505050508152602001600182015481526020016002820180546109c790612caa565b80601f01602080910402602001604051908101604052809291908181526020018280546109f390612caa565b8015610a405780601f10610a1557610100808354040283529160200191610a40565b820191906000526020600020905b815481529060010190602001808311610a2357829003601f168201915b50505050508152602001600382018054610a5990612caa565b80601f0160208091040260200160405190810160405280929190818152602001828054610a8590612caa565b8015610ad25780601f10610aa757610100808354040283529160200191610ad2565b820191906000526020600020905b815481529060010190602001808311610ab557829003601f168201915b50505050508152602001600482015481525050815260200190600101906108f8565b50505050905090565b6000600380549050905090565b60038181548110610b1a57600080fd5b9060005260206000209060050201600091509050806000018054610b3d90612caa565b80601f0160208091040260200160405190810160405280929190818152602001828054610b6990612caa565b8015610bb65780601f10610b8b57610100808354040283529160200191610bb6565b820191906000526020600020905b815481529060010190602001808311610b9957829003601f168201915b505050505090806001015490806002018054610bd190612caa565b80601f0160208091040260200160405190810160405280929190818152602001828054610bfd90612caa565b8015610c4a5780601f10610c1f57610100808354040283529160200191610c4a565b820191906000526020600020905b815481529060010190602001808311610c2d57829003601f168201915b505050505090806003018054610c5f90612caa565b80601f0160208091040260200160405190810160405280929190818152602001828054610c8b90612caa565b8015610cd85780601f10610cad57610100808354040283529160200191610cd8565b820191906000526020600020905b815481529060010190602001808311610cbb57829003601f168201915b5050505050908060040154905085565b6060600060075467ffffffffffffffff811115610d2e577f4e487b7100000000000000000000000000000000000000000000000000000000600052604160045260246000fd5b604051908082528060200260200182016040528015610d6757816020015b610d54611c86565b815260200190600190039081610d4c5790505b50905060005b600754811015610f3957600060048281548110610db3577f4e487b7100000000000000000000000000000000000000000000000000000000600052603260045260246000fd5b9060005260206000200160009054906101000a900473ffffffffffffffffffffffffffffffffffffffff169050600160008273ffffffffffffffffffffffffffffffffffffffff1673ffffffffffffffffffffffffffffffffffffffff168152602001908152602001600020604051806060016040529081600082018054610e3a90612caa565b80601f0160208091040260200160405190810160405280929190818152602001828054610e6690612caa565b8015610eb35780601f10610e8857610100808354040283529160200191610eb3565b820191906000526020600020905b815481529060010190602001808311610e9657829003601f168201915b50505050508152602001600182015481526020016002820160009054906101000a900460ff161515151581525050838381518110610f1a577f4e487b7100000000000000000000000000000000000000000000000000000000600052603260045260246000fd5b6020026020010181905250508080610f3190612cf6565b915050610d6d565b508091505090565b60008054906101000a900473ffffffffffffffffffffffffffffffffffffffff1673ffffffffffffffffffffffffffffffffffffffff163373ffffffffffffffffffffffffffffffffffffffff1614610fcf576040517f08c379a0000000000000000000000000000000000000000000000000000000008152600401610fc690612875565b60405180910390fd5b600060149054906101000a900460ff161561101f576040517f08c379a000000000000000000000000000000000000000000000000000000000815260040161101690612955565b60405180910390fd5b600654421015611064576040517f08c379a000000000000000000000000000000000000000000000000000000000815260040161105b906128f5565b60405180910390fd5b426005819055506000600554116110b0576040517f08c379a00000000000000000000000000000000000000000000000000000000081526004016110a7906128d5565b60405180910390fd5b600081116110f3576040517f08c379a00000000000000000000000000000000000000000000000000000000081526004016110ea90612915565b60405180910390fd5b603c816111009190612b88565b60055461110d9190612b32565b6006819055506001600060146101000a81548160ff02191690831515021790555050565b600061113b611bc6565b905090565b60075481565b60008054906101000a900473ffffffffffffffffffffffffffffffffffffffff1673ffffffffffffffffffffffffffffffffffffffff163373ffffffffffffffffffffffffffffffffffffffff16146111d4576040517f08c379a00000000000000000000000000000000000000000000000000000000081526004016111cb90612875565b60405180910390fd5b600654421015611219576040517f08c379a000000000000000000000000000000000000000000000000000000000815260040161121090612895565b60405180910390fd5b611221611bdc565b61122961128a565b5060086000829190509080519060200190611245929190611c00565b50507fed69fca54248493c3963791b76ea03e5850dfee123c8024d9b443fc6cf1a3bae6008600360405161127a92919061283e565b60405180910390a1565b60065481565b6060806000606060005b60038054905081101561142c5782600382815481106112dc577f4e487b7100000000000000000000000000000000000000000000000000000000600052603260045260246000fd5b9060005260206000209060050201600401541115611419576003818154811061132e577f4e487b7100000000000000000000000000000000000000000000000000000000600052603260045260246000fd5b90600052602060002090600502016004015492506003818154811061137c577f4e487b7100000000000000000000000000000000000000000000000000000000600052603260045260246000fd5b9060005260206000209060050201600001805461139890612caa565b80601f01602080910402602001604051908101604052809291908181526020018280546113c490612caa565b80156114115780601f106113e657610100808354040283529160200191611411565b820191906000526020600020905b8154815290600101906020018083116113f457829003601f168201915b505050505091505b808061142490612cf6565b915050611294565b5080600380805480602002602001604051908101604052809291908181526020016000905b8282101561164d57838290600052602060002090600502016040518060a001604052908160008201805461148490612caa565b80601f01602080910402602001604051908101604052809291908181526020018280546114b090612caa565b80156114fd5780601f106114d2576101008083540402835291602001916114fd565b820191906000526020600020905b8154815290600101906020018083116114e057829003601f168201915b505050505081526020016001820154815260200160028201805461152090612caa565b80601f016020809104026020016040519081016040528092919081815260200182805461154c90612caa565b80156115995780601f1061156e57610100808354040283529160200191611599565b820191906000526020600020905b81548152906001019060200180831161157c57829003601f168201915b505050505081526020016003820180546115b290612caa565b80601f01602080910402602001604051908101604052809291908181526020018280546115de90612caa565b801561162b5780601f106116005761010080835404028352916020019161162b565b820191906000526020600020905b81548152906001019060200180831161160e57829003601f168201915b5050505050815260200160048201548152505081526020019060010190611451565b5050505090509350935050509091565b60026020528060005260406000206000915054906101000a900460ff1681565b60016020528060005260406000206000915090508060000180546116a090612caa565b80601f01602080910402602001604051908101604052809291908181526020018280546116cc90612caa565b80156117195780601f106116ee57610100808354040283529160200191611719565b820191906000526020600020905b8154815290600101906020018083116116fc57829003601f168201915b5050505050908060010154908060020160009054906101000a900460ff16905083565b600060149054906101000a900460ff1681565b6000600754905090565b60008060009054906101000a900473ffffffffffffffffffffffffffffffffffffffff1673ffffffffffffffffffffffffffffffffffffffff163373ffffffffffffffffffffffffffffffffffffffff1614905090565b60008054906101000a900473ffffffffffffffffffffffffffffffffffffffff1673ffffffffffffffffffffffffffffffffffffffff163373ffffffffffffffffffffffffffffffffffffffff161461183e576040517f08c379a000000000000000000000000000000000000000000000000000000000815260040161183590612875565b60405180910390fd5b611846611bc6565b611885576040517f08c379a000000000000000000000000000000000000000000000000000000000815260040161187c90612975565b60405180910390fd5b61188d611bdc565b565b6008805461189c90612caa565b80601f01602080910402602001604051908101604052809291908181526020018280546118c890612caa565b80156119155780601f106118ea57610100808354040283529160200191611915565b820191906000526020600020905b8154815290600101906020018083116118f857829003601f168201915b505050505081565b600260003373ffffffffffffffffffffffffffffffffffffffff1673ffffffffffffffffffffffffffffffffffffffff16815260200190815260200160002060009054906101000a900460ff16156119aa576040517f08c379a00000000000000000000000000000000000000000000000000000000081526004016119a190612995565b60405180910390fd5b604051806060016040528083815260200182815260200160001515815250600160003373ffffffffffffffffffffffffffffffffffffffff1673ffffffffffffffffffffffffffffffffffffffff1681526020019081526020016000206000820151816000019080519060200190611a23929190611c00565b506020820151816001015560408201518160020160006101000a81548160ff0219169083151502179055509050506001600260003373ffffffffffffffffffffffffffffffffffffffff1673ffffffffffffffffffffffffffffffffffffffff16815260200190815260200160002060006101000a81548160ff0219169083151502179055506004339080600181540180825580915050600190039060005260206000200160009091909190916101000a81548173ffffffffffffffffffffffffffffffffffffffff021916908373ffffffffffffffffffffffffffffffffffffffff16021790555060076000815480929190611b1f90612cf6565b91905055505050565b6000806005541415611b3d5760009050611b60565b6006544210611b4f5760009050611b60565b42600654611b5d9190612be2565b90505b90565b60048181548110611b7357600080fd5b906000526020600020016000915054906101000a900473ffffffffffffffffffffffffffffffffffffffff1681565b60008054906101000a900473ffffffffffffffffffffffffffffffffffffffff1681565b60008060149054906101000a900460ff16905090565b600060068190555060008060146101000a81548160ff021916908315150217905550565b828054611c0c90612caa565b90600052602060002090601f016020900481019282611c2e5760008555611c75565b82601f10611c4757805160ff1916838001178555611c75565b82800160010185558215611c75579182015b82811115611c74578251825591602001919060010190611c59565b5b509050611c829190611ca9565b5090565b604051806060016040528060608152602001600081526020016000151581525090565b5b80821115611cc2576000816000905550600101611caa565b5090565b6000611cd9611cd484612a21565b6129f0565b905082815260208101848484011115611cf157600080fd5b611cfc848285612c68565b509392505050565b600081359050611d1381612dea565b92915050565b600082601f830112611d2a57600080fd5b8135611d3a848260208601611cc6565b91505092915050565b600081359050611d5281612e01565b92915050565b600060208284031215611d6a57600080fd5b6000611d7884828501611d04565b91505092915050565b60008060408385031215611d9457600080fd5b600083013567ffffffffffffffff811115611dae57600080fd5b611dba85828601611d19565b9250506020611dcb85828601611d43565b9150509250929050565b60008060008060808587031215611deb57600080fd5b600085013567ffffffffffffffff811115611e0557600080fd5b611e1187828801611d19565b9450506020611e2287828801611d43565b935050604085013567ffffffffffffffff811115611e3f57600080fd5b611e4b87828801611d19565b925050606085013567ffffffffffffffff811115611e6857600080fd5b611e7487828801611d19565b91505092959194509250565b600060208284031215611e9257600080fd5b6000611ea084828501611d43565b91505092915050565b6000611eb5838361253a565b905092915050565b6000611ec983836125be565b905092915050565b6000611edd8383612657565b905092915050565b611eee81612c20565b82525050565b6000611eff82612a9b565b611f098185612aee565b935083602082028501611f1b85612a51565b8060005b85811015611f575784840389528151611f388582611ea9565b9450611f4383612ac7565b925060208a01995050600181019050611f1f565b50829750879550505050505092915050565b6000611f7482612aa6565b611f7e8185612aee565b935083602082028501611f9085612a61565b8060005b85811015611fcb57848403895281611fac8582611ebd565b9450611fb783612ad4565b925060208a01995050600181019050611f94565b50829750879550505050505092915050565b6000611fe882612ab1565b611ff28185612aff565b93508360208202850161200485612a76565b8060005b8581101561204057848403895281516120218582611ed1565b945061202c83612ae1565b925060208a01995050600181019050612008565b50829750879550505050505092915050565b61205b81612c32565b82525050565b61206a81612c32565b82525050565b600061207b82612abc565b6120858185612b10565b9350612095818560208601612c77565b61209e81612dcc565b840191505092915050565b60006120b482612abc565b6120be8185612b21565b93506120ce818560208601612c77565b6120d781612dcc565b840191505092915050565b600081546120ef81612caa565b6120f98186612b10565b94506001821660008114612114576001811461212657612159565b60ff1983168652602086019350612159565b61212f85612a86565b60005b8381101561215157815481890152600182019150602081019050612132565b808801955050505b50505092915050565b6000815461216f81612caa565b6121798186612b21565b9450600182166000811461219457600181146121a6576121d9565b60ff19831686526020860193506121d9565b6121af85612a86565b60005b838110156121d1578154818901526001820191506020810190506121b2565b808801955050505b50505092915050565b60006121ef602583612b21565b91507f4f6e6c79207468652061646d696e2063616e2063616c6c20746869732066756e60008301527f6374696f6e0000000000000000000000000000000000000000000000000000006020830152604082019050919050565b6000612255601883612b21565b91507f566f74696e6720686173206e6f7420656e6465642079657400000000000000006000830152602082019050919050565b6000612295602d83612b21565b91507f4f6e6c79207265676973746572656420766f746572732063616e2063616c6c2060008301527f746869732066756e6374696f6e000000000000000000000000000000000000006020830152604082019050919050565b60006122fb601a83612b21565b91507f566f74696e6720686173206e6f742073746172746564207965740000000000006000830152602082019050919050565b600061233b603183612b21565b91507f566f74696e672066726f6d207468652070726576696f757320706572696f642060008301527f686173206e6f7420656e646564207965740000000000000000000000000000006020830152604082019050919050565b60006123a1602983612b21565b91507f566f74696e67206475726174696f6e206d75737420626520677265617465722060008301527f7468616e207a65726f00000000000000000000000000000000000000000000006020830152604082019050919050565b6000612407601783612b21565b91507f496e76616c69642063616e64696461746520696e6465780000000000000000006000830152602082019050919050565b6000612447601683612b21565b91507f566f74696e6720697320616c7265616479206f70656e000000000000000000006000830152602082019050919050565b6000612487601c83612b21565b91507f566f74696e67206973206e6f742063757272656e746c79206f70656e000000006000830152602082019050919050565b60006124c7601b83612b21565b91507f566f74657220697320616c7265616479207265676973746572656400000000006000830152602082019050919050565b6000612507601683612b21565b91507f596f75206861766520616c726561647920766f746564000000000000000000006000830152602082019050919050565b600060a08301600083015184820360008601526125578282612070565b915050602083015161256c60208601826126a7565b50604083015184820360408601526125848282612070565b9150506060830151848203606086015261259e8282612070565b91505060808301516125b360808601826126a7565b508091505092915050565b600060a08301600080840185830360008701526125db83826120e2565b925050600184015490506125ee81612cdc565b6125fb60208701826126a7565b5060028401858303604087015261261283826120e2565b92505060038401858303606087015261262b83826120e2565b9250506004840154905061263e81612cdc565b61264b60808701826126a7565b50819250505092915050565b600060608301600083015184820360008601526126748282612070565b915050602083015161268960208601826126a7565b50604083015161269c6040860182612052565b508091505092915050565b6126b081612c5e565b82525050565b6126bf81612c5e565b82525050565b60006020820190506126da6000830184611ee5565b92915050565b600060208201905081810360008301526126fa8184611ef4565b905092915050565b6000602082019050818103600083015261271c8184611fdd565b905092915050565b60006020820190506127396000830184612061565b92915050565b6000602082019050818103600083015261275981846120a9565b905092915050565b6000604082019050818103600083015261277b81856120a9565b9050818103602083015261278f8184611ef4565b90509392505050565b600060608201905081810360008301526127b281866120a9565b90506127c160208301856126b6565b6127ce6040830184612061565b949350505050565b600060a08201905081810360008301526127f081886120a9565b90506127ff60208301876126b6565b818103604083015261281181866120a9565b9050818103606083015261282581856120a9565b905061283460808301846126b6565b9695505050505050565b600060408201905081810360008301526128588185612162565b9050818103602083015261286c8184611f69565b90509392505050565b6000602082019050818103600083015261288e816121e2565b9050919050565b600060208201905081810360008301526128ae81612248565b9050919050565b600060208201905081810360008301526128ce81612288565b9050919050565b600060208201905081810360008301526128ee816122ee565b9050919050565b6000602082019050818103600083015261290e8161232e565b9050919050565b6000602082019050818103600083015261292e81612394565b9050919050565b6000602082019050818103600083015261294e816123fa565b9050919050565b6000602082019050818103600083015261296e8161243a565b9050919050565b6000602082019050818103600083015261298e8161247a565b9050919050565b600060208201905081810360008301526129ae816124ba565b9050919050565b600060208201905081810360008301526129ce816124fa565b9050919050565b60006020820190506129ea60008301846126b6565b92915050565b6000604051905081810181811067ffffffffffffffff82111715612a1757612a16612d9d565b5b8060405250919050565b600067ffffffffffffffff821115612a3c57612a3b612d9d565b5b601f19601f8301169050602081019050919050565b6000819050602082019050919050565b60008190508160005260206000209050919050565b6000819050602082019050919050565b60008190508160005260206000209050919050565b600081519050919050565b600081549050919050565b600081519050919050565b600081519050919050565b6000602082019050919050565b6000600582019050919050565b6000602082019050919050565b600082825260208201905092915050565b600082825260208201905092915050565b600082825260208201905092915050565b600082825260208201905092915050565b6000612b3d82612c5e565b9150612b4883612c5e565b9250827fffffffffffffffffffffffffffffffffffffffffffffffffffffffffffffffff03821115612b7d57612b7c612d3f565b5b828201905092915050565b6000612b9382612c5e565b9150612b9e83612c5e565b9250817fffffffffffffffffffffffffffffffffffffffffffffffffffffffffffffffff0483118215151615612bd757612bd6612d3f565b5b828202905092915050565b6000612bed82612c5e565b9150612bf883612c5e565b925082821015612c0b57612c0a612d3f565b5b828203905092915050565b6000819050919050565b6000612c2b82612c3e565b9050919050565b60008115159050919050565b600073ffffffffffffffffffffffffffffffffffffffff82169050919050565b6000819050919050565b82818337600083830152505050565b60005b83811015612c95578082015181840152602081019050612c7a565b83811115612ca4576000848401525b50505050565b60006002820490506001821680612cc257607f821691505b60208210811415612cd657612cd5612d6e565b5b50919050565b6000612cef612cea83612ddd565b612c16565b9050919050565b6000612d0182612c5e565b91507fffffffffffffffffffffffffffffffffffffffffffffffffffffffffffffffff821415612d3457612d33612d3f565b5b600182019050919050565b7f4e487b7100000000000000000000000000000000000000000000000000000000600052601160045260246000fd5b7f4e487b7100000000000000000000000000000000000000000000000000000000600052602260045260246000fd5b7f4e487b7100000000000000000000000000000000000000000000000000000000600052604160045260246000fd5b6000601f19601f8301169050919050565b60008160001c9050919050565b612df381612c20565b8114612dfe57600080fd5b50565b612e0a81612c5e565b8114612e1557600080fd5b5056fea26469706673582212201bd7727e66d3bc1af675a60658143c75e8bce1e8892a92cbc2b8e6cc147d270d64736f6c63430008000033",
  "linkReferences": {},
  "deployedLinkReferences": {}
}